{
    "contractName": "Lottery",
    "abi": [
        {
            "inputs": [
                {
                    "internalType": "uint256",
                    "name": "_ticketPrice",
                    "type": "uint256"
                },
                {
                    "internalType": "uint32",
                    "name": "_ticketsNumber",
                    "type": "uint32"
                },
                {
                    "internalType": "uint32",
                    "name": "_duration",
                    "type": "uint32"
                }
            ],
            "stateMutability": "nonpayable",
            "type": "constructor"
        },
        {
            "inputs": [
                {
                    "internalType": "uint256",
                    "name": "amount",
                    "type": "uint256"
                }
            ],
            "name": "buyTickets",
            "outputs": [],
            "stateMutability": "payable",
            "type": "function"
        },
        {
            "inputs": [],
            "name": "getDuration",
            "outputs": [
                {
                    "internalType": "uint32",
                    "name": "",
                    "type": "uint32"
                }
            ],
            "stateMutability": "view",
            "type": "function"
        },
        {
            "inputs": [],
            "name": "getTicketPrice",
            "outputs": [
                {
                    "internalType": "uint256",
                    "name": "",
                    "type": "uint256"
                }
            ],
            "stateMutability": "view",
            "type": "function"
        },
        {
            "inputs": [],
            "name": "getTicketsNumber",
            "outputs": [
                {
                    "internalType": "uint32",
                    "name": "",
                    "type": "uint32"
                }
            ],
            "stateMutability": "view",
            "type": "function"
        },
        {
            "inputs": [],
            "name": "owner",
            "outputs": [
                {
                    "internalType": "address",
                    "name": "",
                    "type": "address"
                }
            ],
            "stateMutability": "view",
            "type": "function"
        },
        {
            "inputs": [
                {
                    "internalType": "uint256",
                    "name": "",
                    "type": "uint256"
                }
            ],
            "name": "players",
            "outputs": [
                {
                    "internalType": "address payable",
                    "name": "",
                    "type": "address"
                }
            ],
            "stateMutability": "view",
            "type": "function"
        },
        {
            "inputs": [],
            "name": "pot",
            "outputs": [
                {
                    "internalType": "address payable",
                    "name": "",
                    "type": "address"
                }
            ],
            "stateMutability": "view",
            "type": "function"
        }
    ],
    "bytecode": "6080604052600160045534801561001557600080fd5b5060405161045f38038061045f83398101604081905261003491610094565b600080546001600160a01b031916331790556003929092556005805463ffffffff938416640100000000026001600160401b031990911693909216929092171790556100d0565b805163ffffffff8116811461008f57600080fd5b919050565b6000806000606084860312156100a957600080fd5b835192506100b96020850161007b565b91506100c76040850161007b565b90509250925092565b610380806100df6000396000f3fe6080604052600436106100705760003560e01c80638da5cb5b1161004e5780638da5cb5b146100e5578063ad2e8c9b14610105578063dfbfa73914610139578063f71d96cb1461015457600080fd5b80632f366637146100755780634ba2363a1461008a57806387bb7ae0146100c7575b600080fd5b6100886100833660046102c5565b610174565b005b34801561009657600080fd5b506002546100aa906001600160a01b031681565b6040516001600160a01b0390911681526020015b60405180910390f35b3480156100d357600080fd5b506003546040519081526020016100be565b3480156100f157600080fd5b506000546100aa906001600160a01b031681565b34801561011157600080fd5b50600554640100000000900463ffffffff165b60405163ffffffff90911681526020016100be565b34801561014557600080fd5b5060055463ffffffff16610124565b34801561016057600080fd5b506100aa61016f3660046102c5565b61029b565b60045460035461018490836102f4565b61018e91906102f4565b34101561019a57600080fd5b60055463ffffffff1681111561020c5760405162461bcd60e51b815260206004820152602d60248201527f4e6f7420656e6f756768207469636b65747320746f20636f6d706c657465207460448201526c3434b990383ab931b430b9b29760991b606482015260840160405180910390fd5b80156102985760018054808201825560009182527fb10e2d527612073b26eecdfd717e6a320cf44b4afac2b0732d9fcbe2b7fa0cf60180546001600160a01b031916331790556005805463ffffffff169161026683610313565b91906101000a81548163ffffffff021916908363ffffffff16021790555050808061029090610333565b91505061020c565b50565b600181815481106102ab57600080fd5b6000918252602090912001546001600160a01b0316905081565b6000602082840312156102d757600080fd5b5035919050565b634e487b7160e01b600052601160045260246000fd5b600081600019048311821515161561030e5761030e6102de565b500290565b600063ffffffff821680610329576103296102de565b6000190192915050565b600081610342576103426102de565b50600019019056fea2646970667358221220bd2c9a69d1fc56f557c51ff9c1ef20949deaca501313267c500d4b190224f98d64736f6c634300080c0033",
    "sourcePath": "/home/david/Documents/Hepia/crypto_lottery/crypto-lottery/backend/artifacts/contracts/Lottery.sol",
    "compiler": {
        "name": "solc",
        "version": "0.8.12+commit.f00d7308"
    },
    "functionHashes": {
        "buyTickets(uint256)": "2f366637",
        "getDuration()": "ad2e8c9b",
        "getTicketPrice()": "87bb7ae0",
        "getTicketsNumber()": "dfbfa739",
        "owner()": "8da5cb5b",
        "players(uint256)": "f71d96cb",
        "pot()": "4ba2363a"
    },
    "gasEstimates": {
        "creation": {
            "codeDepositCost": "179200",
            "executionCost": "infinite",
            "totalCost": "infinite"
        },
        "external": {
            "buyTickets(uint256)": "infinite",
            "getDuration()": "2329",
            "getTicketPrice()": "2325",
            "getTicketsNumber()": "2351",
            "owner()": "2326",
            "players(uint256)": "4669",
            "pot()": "2349"
        }
    }
}