{
    "contractName": "Lottery",
    "abi": [
        {
            "inputs": [
                {
                    "internalType": "uint32",
                    "name": "_ticketPrice",
                    "type": "uint32"
                },
                {
                    "internalType": "uint32",
                    "name": "_ticketsNumber",
                    "type": "uint32"
                },
                {
                    "internalType": "uint32",
                    "name": "_duration",
                    "type": "uint32"
                }
            ],
            "stateMutability": "nonpayable",
            "type": "constructor"
        },
        {
            "inputs": [
                {
                    "internalType": "address",
                    "name": "buyer",
                    "type": "address"
                },
                {
                    "internalType": "uint32",
                    "name": "n",
                    "type": "uint32"
                }
            ],
            "name": "buy",
            "outputs": [
                {
                    "internalType": "uint32",
                    "name": "",
                    "type": "uint32"
                }
            ],
            "stateMutability": "nonpayable",
            "type": "function"
        },
        {
            "inputs": [],
            "name": "getDuration",
            "outputs": [
                {
                    "internalType": "uint32",
                    "name": "",
                    "type": "uint32"
                }
            ],
            "stateMutability": "view",
            "type": "function"
        },
        {
            "inputs": [],
            "name": "getTicketPrice",
            "outputs": [
                {
                    "internalType": "uint32",
                    "name": "",
                    "type": "uint32"
                }
            ],
            "stateMutability": "view",
            "type": "function"
        },
        {
            "inputs": [],
            "name": "getTicketsNumber",
            "outputs": [
                {
                    "internalType": "uint32",
                    "name": "",
                    "type": "uint32"
                }
            ],
            "stateMutability": "view",
            "type": "function"
        },
        {
            "inputs": [],
            "name": "owner",
            "outputs": [
                {
                    "internalType": "address",
                    "name": "",
                    "type": "address"
                }
            ],
            "stateMutability": "view",
            "type": "function"
        }
    ],
    "bytecode": "608060405234801561001057600080fd5b5060405161036d38038061036d83398101604081905261002f916100a5565b600080546001600160c01b0319163363ffffffff60a01b191617600160a01b63ffffffff958616021763ffffffff60c01b1916600160c01b93851693909302929092179091556002805463ffffffff1916919092161790556100e8565b805163ffffffff811681146100a057600080fd5b919050565b6000806000606084860312156100ba57600080fd5b6100c38461008c565b92506100d16020850161008c565b91506100df6040850161008c565b90509250925092565b610276806100f76000396000f3fe608060405234801561001057600080fd5b50600436106100575760003560e01c80631d71570a1461005c57806387bb7ae0146100895780638da5cb5b1461009e578063ad2e8c9b146100c9578063dfbfa739146100d7575b600080fd5b61006f61006a3660046101c4565b6100ec565b60405163ffffffff90911681526020015b60405180910390f35b600054600160a01b900463ffffffff1661006f565b6000546100b1906001600160a01b031681565b6040516001600160a01b039091168152602001610080565b60025463ffffffff1661006f565b600054600160c01b900463ffffffff1661006f565b60005b63ffffffff8216158015906101125750600054600160c01b900463ffffffff1615155b156101ad5760018054808201825560009182527fb10e2d527612073b26eecdfd717e6a320cf44b4afac2b0732d9fcbe2b7fa0cf60180546001600160a01b0319166001600160a01b0386161790558054600160c01b900463ffffffff1690601861017b83610212565b91906101000a81548163ffffffff021916908363ffffffff1602179055505081806101a590610212565b9250506100ef565b5050600054600160c01b900463ffffffff16919050565b600080604083850312156101d757600080fd5b82356001600160a01b03811681146101ee57600080fd5b9150602083013563ffffffff8116811461020757600080fd5b809150509250929050565b600063ffffffff82168061023657634e487b7160e01b600052601160045260246000fd5b600019019291505056fea264697066735822122061d077cd8176c7b4c1a8a0a08a5fb5c64a5a4328532e9923b54d6070f22522c864736f6c634300080c0033",
    "sourcePath": "/home/david/Documents/Hepia/crypto_lottery/crypto-lottery/backend/artifacts/contracts/Lottery.sol",
    "compiler": {
        "name": "solc",
        "version": "0.8.12+commit.f00d7308"
    },
    "functionHashes": {
        "buy(address,uint32)": "1d71570a",
        "getDuration()": "ad2e8c9b",
        "getTicketPrice()": "87bb7ae0",
        "getTicketsNumber()": "dfbfa739",
        "owner()": "8da5cb5b"
    },
    "gasEstimates": {
        "creation": {
            "codeDepositCost": "126000",
            "executionCost": "infinite",
            "totalCost": "infinite"
        },
        "external": {
            "buy(address,uint32)": "infinite",
            "getDuration()": "2340",
            "getTicketPrice()": "2313",
            "getTicketsNumber()": "2379",
            "owner()": "2359"
        }
    }
}