{
  "_format": "hh-sol-artifact-1",
  "contractName": "Lotherum",
  "sourceName": "contracts/Lotherum.sol",
  "abi": [
    {
      "inputs": [],
      "stateMutability": "nonpayable",
      "type": "constructor"
    },
    {
      "anonymous": false,
      "inputs": [
        {
          "indexed": false,
          "internalType": "uint256",
          "name": "lottery_id",
          "type": "uint256"
        }
      ],
      "name": "createdLottered",
      "type": "event"
    },
    {
      "inputs": [
        {
          "internalType": "uint256",
          "name": "id",
          "type": "uint256"
        },
        {
          "internalType": "uint256",
          "name": "amount",
          "type": "uint256"
        }
      ],
      "name": "buyTickets",
      "outputs": [],
      "stateMutability": "payable",
      "type": "function"
    },
    {
      "inputs": [
        {
          "internalType": "uint256",
          "name": "id",
          "type": "uint256"
        },
        {
          "internalType": "uint256",
          "name": "ticketPrice",
          "type": "uint256"
        },
        {
          "internalType": "uint256",
          "name": "ticketsNumber",
          "type": "uint256"
        },
        {
          "internalType": "uint256",
          "name": "duration",
          "type": "uint256"
        }
      ],
      "name": "create_lottery",
      "outputs": [],
      "stateMutability": "nonpayable",
      "type": "function"
    },
    {
      "inputs": [
        {
          "internalType": "uint256",
          "name": "id",
          "type": "uint256"
        }
      ],
      "name": "find_lottery_index",
      "outputs": [
        {
          "internalType": "uint256",
          "name": "",
          "type": "uint256"
        }
      ],
      "stateMutability": "view",
      "type": "function"
    },
    {
      "inputs": [
        {
          "internalType": "uint256",
          "name": "id",
          "type": "uint256"
        }
      ],
      "name": "getDuration",
      "outputs": [
        {
          "internalType": "uint256",
          "name": "",
          "type": "uint256"
        }
      ],
      "stateMutability": "view",
      "type": "function"
    },
    {
      "inputs": [
        {
          "internalType": "uint256",
          "name": "id",
          "type": "uint256"
        }
      ],
      "name": "getTicketPrice",
      "outputs": [
        {
          "internalType": "uint256",
          "name": "",
          "type": "uint256"
        }
      ],
      "stateMutability": "view",
      "type": "function"
    },
    {
      "inputs": [
        {
          "internalType": "uint256",
          "name": "id",
          "type": "uint256"
        }
      ],
      "name": "getTicketsNumber",
      "outputs": [
        {
          "internalType": "uint256",
          "name": "",
          "type": "uint256"
        }
      ],
      "stateMutability": "view",
      "type": "function"
    },
    {
      "inputs": [
        {
          "internalType": "uint256",
          "name": "",
          "type": "uint256"
        }
      ],
      "name": "lotteries",
      "outputs": [
        {
          "internalType": "uint256",
          "name": "id",
          "type": "uint256"
        },
        {
          "internalType": "uint256",
          "name": "ticketPrice",
          "type": "uint256"
        },
        {
          "internalType": "uint256",
          "name": "ticketsNumber",
          "type": "uint256"
        },
        {
          "internalType": "uint256",
          "name": "duration",
          "type": "uint256"
        }
      ],
      "stateMutability": "view",
      "type": "function"
    },
    {
      "inputs": [],
      "name": "owner",
      "outputs": [
        {
          "internalType": "address",
          "name": "",
          "type": "address"
        }
      ],
      "stateMutability": "view",
      "type": "function"
    }
  ],
  "bytecode": "0x60806040526001805534801561001457600080fd5b50336000806101000a81548173ffffffffffffffffffffffffffffffffffffffff021916908373ffffffffffffffffffffffffffffffffffffffff16021790555061068e806100646000396000f3fe60806040526004361061007b5760003560e01c8063aae39d281161004e578063aae39d28146101ac578063e662520614610205578063edfa476414610254578063f06fc961146102a35761007b565b80631398e076146100805780638627df46146100e45780638bb126a71461011c5780638da5cb5b1461016b575b600080fd5b34801561008c57600080fd5b506100b9600480360360208110156100a357600080fd5b81019080803590602001909291905050506102f2565b6040518085815260200184815260200183815260200182815260200194505050505060405180910390f35b61011a600480360360408110156100fa57600080fd5b81019080803590602001909291908035906020019092919050505061032f565b005b34801561012857600080fd5b506101556004803603602081101561013f57600080fd5b810190808035906020019092919050505061042f565b6040518082815260200191505060405180910390f35b34801561017757600080fd5b5061018061045f565b604051808273ffffffffffffffffffffffffffffffffffffffff16815260200191505060405180910390f35b3480156101b857600080fd5b50610203600480360360808110156101cf57600080fd5b8101908080359060200190929190803590602001909291908035906020019092919080359060200190929190505050610483565b005b34801561021157600080fd5b5061023e6004803603602081101561022857600080fd5b8101908080359060200190929190505050610546565b6040518082815260200191505060405180910390f35b34801561026057600080fd5b5061028d6004803603602081101561027757600080fd5b81019080803590602001909291905050506105a3565b6040518082815260200191505060405180910390f35b3480156102af57600080fd5b506102dc600480360360208110156102c657600080fd5b81019080803590602001909291905050506105d3565b6040518082815260200191505060405180910390f35b600281815481106102ff57fe5b90600052602060002090600402016000915090508060000154908060010154908060020154908060030154905084565b600061033a83610546565b90506001546002828154811061034c57fe5b90600052602060002090600402016001015483020234101561036d57600080fd5b816002828154811061037b57fe5b90600052602060002090600402016002015410156103e4576040517f08c379a000000000000000000000000000000000000000000000000000000000815260040180806020018281038252602d81526020018061062c602d913960400191505060405180910390fd5b5b6000821461042a57600281815481106103fa57fe5b906000526020600020906004020160020160008154809291906001900391905055508180600190039250506103e5565b505050565b6000600261043c83610546565b8154811061044657fe5b9060005260206000209060040201600301549050919050565b60008054906101000a900473ffffffffffffffffffffffffffffffffffffffff1681565b61048b610603565b604051806080016040528086815260200185815260200184815260200183815250905060028190806001815401808255809150506001900390600052602060002090600402016000909190919091506000820151816000015560208201518160010155604082015181600201556060820151816003015550507f7e83ff23c10168b32b96734296be826a1ab97694d76281606bc2033f0f32031a81600001516040518082815260200191505060405180910390a15050505050565b600080600090505b60028054905081101561059757826002828154811061056957fe5b906000526020600020906004020160000154141561058a578091505061059e565b808060010191505061054e565b506103e890505b919050565b600060026105b083610546565b815481106105ba57fe5b9060005260206000209060040201600201549050919050565b600060026105e083610546565b815481106105ea57fe5b9060005260206000209060040201600101549050919050565b604051806080016040528060008152602001600081526020016000815260200160008152509056fe4e6f7420656e6f756768207469636b65747320746f20636f6d706c65746520746869732070757263686173652ea2646970667358221220551aff5611c542e8485a30defa8bb1402d20c51ce06767782d5115fe84ca653864736f6c63430007030033",
  "linkReferences": {},
  "deployedLinkReferences": {}
}