{
  "_format": "hh-sol-artifact-1",
  "contractName": "Lotherum",
  "sourceName": "contracts/Lotherum.sol",
  "abi": [
    {
      "inputs": [],
      "stateMutability": "nonpayable",
      "type": "constructor"
    },
    {
      "anonymous": false,
      "inputs": [
        {
          "indexed": false,
          "internalType": "string",
          "name": "new_lottery_name",
          "type": "string"
        }
      ],
      "name": "createdLottered",
      "type": "event"
    },
    {
      "inputs": [
        {
          "internalType": "string",
          "name": "name",
          "type": "string"
        }
      ],
      "name": "create_lottery",
      "outputs": [],
      "stateMutability": "nonpayable",
      "type": "function"
    },
    {
      "inputs": [
        {
          "internalType": "uint256",
          "name": "",
          "type": "uint256"
        }
      ],
      "name": "lotteries",
      "outputs": [
        {
          "internalType": "string",
          "name": "Name",
          "type": "string"
        }
      ],
      "stateMutability": "view",
      "type": "function"
    }
  ],
  "bytecode": "0x608060405234801561001057600080fd5b50610446806100206000396000f3fe608060405234801561001057600080fd5b50600436106100365760003560e01c80631398e0761461003b57806378ea5eb1146100e2575b600080fd5b6100676004803603602081101561005157600080fd5b810190808035906020019092919050505061019d565b6040518080602001828103825283818151815260200191508051906020019080838360005b838110156100a757808201518184015260208101905061008c565b50505050905090810190601f1680156100d45780820380516001836020036101000a031916815260200191505b509250505060405180910390f35b61019b600480360360208110156100f857600080fd5b810190808035906020019064010000000081111561011557600080fd5b82018360208201111561012757600080fd5b8035906020019184600183028401116401000000008311171561014957600080fd5b91908080601f016020809104026020016040519081016040528093929190818152602001838380828437600081840152601f19601f82011690508083019250505050505050919291929050505061025c565b005b600081815481106101aa57fe5b90600052602060002001600091509050806000018054600181600116156101000203166002900480601f0160208091040260200160405190810160405280929190818152602001828054600181600116156101000203166002900480156102525780601f1061022757610100808354040283529160200191610252565b820191906000526020600020905b81548152906001019060200180831161023557829003601f168201915b5050505050905081565b610264610360565b60405180602001604052808381525090506000819080600181540180825580915050600190039060005260206000200160009091909190915060008201518160000190805190602001906102b9929190610373565b5050507f4ff0eee1cd91d404f9bdb343c1bc8c1f0810e580e97e7d74341be7ed28a4b3f281600001516040518080602001828103825283818151815260200191508051906020019080838360005b83811015610322578082015181840152602081019050610307565b50505050905090810190601f16801561034f5780820380516001836020036101000a031916815260200191505b509250505060405180910390a15050565b6040518060200160405280606081525090565b828054600181600116156101000203166002900490600052602060002090601f016020900481019282601f106103b457805160ff19168380011785556103e2565b828001600101855582156103e2579182015b828111156103e15782518255916020019190600101906103c6565b5b5090506103ef91906103f3565b5090565b5b8082111561040c5760008160009055506001016103f4565b509056fea2646970667358221220468b76265002abe0d87b3282593e83cd72233ae2dbbb14a521fc1b7943f2982964736f6c63430007030033",
  "linkReferences": {},
  "deployedLinkReferences": {}
}