{
    "contractName": "Lotherum",
    "abi": [
        {
            "inputs": [],
            "stateMutability": "nonpayable",
            "type": "constructor"
        },
        {
            "anonymous": false,
            "inputs": [
                {
                    "indexed": false,
                    "internalType": "uint256",
                    "name": "lottery_id",
                    "type": "uint256"
                }
            ],
            "name": "createdLottered",
            "type": "event"
        },
        {
            "inputs": [
                {
                    "internalType": "uint256",
                    "name": "id",
                    "type": "uint256"
                },
                {
                    "internalType": "uint256",
                    "name": "amount",
                    "type": "uint256"
                }
            ],
            "name": "buyTickets",
            "outputs": [],
            "stateMutability": "payable",
            "type": "function"
        },
        {
            "inputs": [
                {
                    "internalType": "uint256",
                    "name": "id",
                    "type": "uint256"
                },
                {
                    "internalType": "uint256",
                    "name": "ticketPrice",
                    "type": "uint256"
                },
                {
                    "internalType": "uint256",
                    "name": "ticketsNumber",
                    "type": "uint256"
                },
                {
                    "internalType": "uint256",
                    "name": "duration",
                    "type": "uint256"
                }
            ],
            "name": "create_lottery",
            "outputs": [],
            "stateMutability": "nonpayable",
            "type": "function"
        },
        {
            "inputs": [
                {
                    "internalType": "uint256",
                    "name": "id",
                    "type": "uint256"
                }
            ],
            "name": "find_lottery_index",
            "outputs": [
                {
                    "internalType": "uint256",
                    "name": "",
                    "type": "uint256"
                }
            ],
            "stateMutability": "view",
            "type": "function"
        },
        {
            "inputs": [
                {
                    "internalType": "uint256",
                    "name": "id",
                    "type": "uint256"
                }
            ],
            "name": "getDuration",
            "outputs": [
                {
                    "internalType": "uint256",
                    "name": "",
                    "type": "uint256"
                }
            ],
            "stateMutability": "view",
            "type": "function"
        },
        {
            "inputs": [
                {
                    "internalType": "uint256",
                    "name": "id",
                    "type": "uint256"
                }
            ],
            "name": "getTicketPrice",
            "outputs": [
                {
                    "internalType": "uint256",
                    "name": "",
                    "type": "uint256"
                }
            ],
            "stateMutability": "view",
            "type": "function"
        },
        {
            "inputs": [
                {
                    "internalType": "uint256",
                    "name": "id",
                    "type": "uint256"
                }
            ],
            "name": "getTicketsNumber",
            "outputs": [
                {
                    "internalType": "uint256",
                    "name": "",
                    "type": "uint256"
                }
            ],
            "stateMutability": "view",
            "type": "function"
        },
        {
            "inputs": [
                {
                    "internalType": "uint256",
                    "name": "",
                    "type": "uint256"
                }
            ],
            "name": "lotteries",
            "outputs": [
                {
                    "internalType": "uint256",
                    "name": "id",
                    "type": "uint256"
                },
                {
                    "internalType": "uint256",
                    "name": "ticketPrice",
                    "type": "uint256"
                },
                {
                    "internalType": "uint256",
                    "name": "ticketsNumber",
                    "type": "uint256"
                },
                {
                    "internalType": "uint256",
                    "name": "duration",
                    "type": "uint256"
                }
            ],
            "stateMutability": "view",
            "type": "function"
        },
        {
            "inputs": [],
            "name": "owner",
            "outputs": [
                {
                    "internalType": "address",
                    "name": "",
                    "type": "address"
                }
            ],
            "stateMutability": "view",
            "type": "function"
        }
    ],
    "bytecode": "60806040526001805534801561001457600080fd5b50600080546001600160a01b0319163317905561065b806100366000396000f3fe60806040526004361061007b5760003560e01c8063aae39d281161004e578063aae39d2814610140578063e662520614610160578063edfa476414610180578063f06fc961146101a057600080fd5b80631398e076146100805780638627df46146100c55780638bb126a7146100da5780638da5cb5b14610108575b600080fd5b34801561008c57600080fd5b506100a061009b36600461053b565b6101c0565b6040805194855260208501939093529183015260608201526080015b60405180910390f35b6100d86100d3366004610554565b6101fa565b005b3480156100e657600080fd5b506100fa6100f536600461053b565b610332565b6040519081526020016100bc565b34801561011457600080fd5b50600054610128906001600160a01b031681565b6040516001600160a01b0390911681526020016100bc565b34801561014c57600080fd5b506100d861015b366004610576565b610368565b34801561016c57600080fd5b506100fa61017b36600461053b565b610473565b34801561018c57600080fd5b506100fa61019b36600461053b565b6104cf565b3480156101ac57600080fd5b506100fa6101bb36600461053b565b610505565b600281815481106101d057600080fd5b60009182526020909120600490910201805460018201546002830154600390930154919350919084565b600061020583610473565b90506001546002828154811061021d5761021d6105a8565b9060005260206000209060040201600101548361023a91906105d4565b61024491906105d4565b34101561025057600080fd5b8160028281548110610264576102646105a8565b90600052602060002090600402016002015410156102de5760405162461bcd60e51b815260206004820152602d60248201527f4e6f7420656e6f756768207469636b65747320746f20636f6d706c657465207460448201526c3434b990383ab931b430b9b29760991b606482015260840160405180910390fd5b811561032d57600281815481106102f7576102f76105a8565b600091825260208220600260049092020101805491610315836105f3565b91905055508180610325906105f3565b9250506102de565b505050565b6000600261033f83610473565b8154811061034f5761034f6105a8565b9060005260206000209060040201600301549050919050565b604080516080810182528581526020808201868152828401868152606084018681526002805460018101825560009190915285517f405787fa12a823e0f2b7631cc41b3ba8828b3321ca811111fa75cd3aa3bb5ace600490920291820181905593517f405787fa12a823e0f2b7631cc41b3ba8828b3321ca811111fa75cd3aa3bb5acf82015591517f405787fa12a823e0f2b7631cc41b3ba8828b3321ca811111fa75cd3aa3bb5ad0830155517f405787fa12a823e0f2b7631cc41b3ba8828b3321ca811111fa75cd3aa3bb5ad190910155925192835290917f7e83ff23c10168b32b96734296be826a1ab97694d76281606bc2033f0f32031a910160405180910390a15050505050565b6000805b6002548110156104c5578260028281548110610495576104956105a8565b90600052602060002090600402016000015414156104b35792915050565b806104bd8161060a565b915050610477565b506103e892915050565b600060026104dc83610473565b815481106104ec576104ec6105a8565b9060005260206000209060040201600201549050919050565b6000600261051283610473565b81548110610522576105226105a8565b9060005260206000209060040201600101549050919050565b60006020828403121561054d57600080fd5b5035919050565b6000806040838503121561056757600080fd5b50508035926020909101359150565b6000806000806080858703121561058c57600080fd5b5050823594602084013594506040840135936060013592509050565b634e487b7160e01b600052603260045260246000fd5b634e487b7160e01b600052601160045260246000fd5b60008160001904831182151516156105ee576105ee6105be565b500290565b600081610602576106026105be565b506000190190565b600060001982141561061e5761061e6105be565b506001019056fea26469706673582212205348ce85f1b4fdf5f7e45913b50b5d85f6b4299f8cbfe920135b12dc14c0336164736f6c634300080c0033",
    "sourcePath": "/home/david/Documents/Hepia/crypto-lottery/backend/contracts/Lotherum.sol",
    "compiler": {
        "name": "solc",
        "version": "0.8.12+commit.f00d7308"
    },
    "functionHashes": {
        "buyTickets(uint256,uint256)": "8627df46",
        "create_lottery(uint256,uint256,uint256,uint256)": "aae39d28",
        "find_lottery_index(uint256)": "e6625206",
        "getDuration(uint256)": "8bb126a7",
        "getTicketPrice(uint256)": "f06fc961",
        "getTicketsNumber(uint256)": "edfa4764",
        "lotteries(uint256)": "1398e076",
        "owner()": "8da5cb5b"
    },
    "gasEstimates": {
        "creation": {
            "codeDepositCost": "325400",
            "executionCost": "46703",
            "totalCost": "372103"
        },
        "external": {
            "buyTickets(uint256,uint256)": "infinite",
            "create_lottery(uint256,uint256,uint256,uint256)": "114169",
            "find_lottery_index(uint256)": "infinite",
            "getDuration(uint256)": "infinite",
            "getTicketPrice(uint256)": "infinite",
            "getTicketsNumber(uint256)": "infinite",
            "lotteries(uint256)": "10978",
            "owner()": "2404"
        }
    }
}