{
  "_format": "hh-sol-artifact-1",
  "contractName": "Lotherum",
  "sourceName": "contracts/Lotherum.sol",
  "abi": [
    {
      "inputs": [],
      "stateMutability": "nonpayable",
      "type": "constructor"
    },
    {
      "anonymous": false,
      "inputs": [
        {
          "indexed": false,
          "internalType": "string",
          "name": "lottery_id",
          "type": "string"
        }
      ],
      "name": "createdLottered",
      "type": "event"
    },
    {
      "inputs": [
        {
          "internalType": "string",
          "name": "name",
          "type": "string"
        },
        {
          "internalType": "uint256",
          "name": "amount",
          "type": "uint256"
        }
      ],
      "name": "buyTickets",
      "outputs": [],
      "stateMutability": "payable",
      "type": "function"
    },
    {
      "inputs": [
        {
          "internalType": "string",
          "name": "name",
          "type": "string"
        },
        {
          "internalType": "uint256",
          "name": "ticketPrice",
          "type": "uint256"
        },
        {
          "internalType": "uint256",
          "name": "ticketsNumber",
          "type": "uint256"
        },
        {
          "internalType": "uint256",
          "name": "duration",
          "type": "uint256"
        }
      ],
      "name": "create_lottery",
      "outputs": [],
      "stateMutability": "nonpayable",
      "type": "function"
    },
    {
      "inputs": [
        {
          "internalType": "string",
          "name": "name",
          "type": "string"
        }
      ],
      "name": "find_lottery_index",
      "outputs": [
        {
          "internalType": "uint256",
          "name": "",
          "type": "uint256"
        }
      ],
      "stateMutability": "view",
      "type": "function"
    },
    {
      "inputs": [
        {
          "internalType": "string",
          "name": "name",
          "type": "string"
        }
      ],
      "name": "getDuration",
      "outputs": [
        {
          "internalType": "uint256",
          "name": "",
          "type": "uint256"
        }
      ],
      "stateMutability": "view",
      "type": "function"
    },
    {
      "inputs": [
        {
          "internalType": "string",
          "name": "name",
          "type": "string"
        }
      ],
      "name": "getTicketPrice",
      "outputs": [
        {
          "internalType": "uint256",
          "name": "",
          "type": "uint256"
        }
      ],
      "stateMutability": "view",
      "type": "function"
    },
    {
      "inputs": [
        {
          "internalType": "string",
          "name": "name",
          "type": "string"
        }
      ],
      "name": "getTicketsNumber",
      "outputs": [
        {
          "internalType": "uint256",
          "name": "",
          "type": "uint256"
        }
      ],
      "stateMutability": "view",
      "type": "function"
    },
    {
      "inputs": [],
      "name": "get_lotteries",
      "outputs": [
        {
          "components": [
            {
              "internalType": "string",
              "name": "name",
              "type": "string"
            },
            {
              "internalType": "uint256",
              "name": "ticketPrice",
              "type": "uint256"
            },
            {
              "internalType": "uint256",
              "name": "ticketsNumber",
              "type": "uint256"
            },
            {
              "internalType": "uint256",
              "name": "duration",
              "type": "uint256"
            }
          ],
          "internalType": "struct Lotherum.Lottery[]",
          "name": "",
          "type": "tuple[]"
        }
      ],
      "stateMutability": "view",
      "type": "function"
    },
    {
      "inputs": [
        {
          "internalType": "uint256",
          "name": "",
          "type": "uint256"
        }
      ],
      "name": "lotteries",
      "outputs": [
        {
          "internalType": "string",
          "name": "name",
          "type": "string"
        },
        {
          "internalType": "uint256",
          "name": "ticketPrice",
          "type": "uint256"
        },
        {
          "internalType": "uint256",
          "name": "ticketsNumber",
          "type": "uint256"
        },
        {
          "internalType": "uint256",
          "name": "duration",
          "type": "uint256"
        }
      ],
      "stateMutability": "view",
      "type": "function"
    },
    {
      "inputs": [],
      "name": "owner",
      "outputs": [
        {
          "internalType": "address",
          "name": "",
          "type": "address"
        }
      ],
      "stateMutability": "view",
      "type": "function"
    }
  ],
  "bytecode": "0x60806040526001805534801561001457600080fd5b50336000806101000a81548173ffffffffffffffffffffffffffffffffffffffff021916908373ffffffffffffffffffffffffffffffffffffffff160217905550610ee2806100646000396000f3fe6080604052600436106100865760003560e01c80635356eb8b116100595780635356eb8b146101705780638da5cb5b146101ad578063cd11d3fe146101d8578063ce0c62a5146101f4578063deda7bcd1461021d57610086565b80631398e0761461008b578063298f5cc1146100cb5780633f7c023a146101085780634d9be9d114610145575b600080fd5b34801561009757600080fd5b506100b260048036038101906100ad9190610978565b61025a565b6040516100c29493929190610c96565b60405180910390f35b3480156100d757600080fd5b506100f260048036038101906100ed9190610868565b61032f565b6040516100ff9190610d02565b60405180910390f35b34801561011457600080fd5b5061012f600480360381019061012a9190610868565b61035f565b60405161013c9190610d02565b60405180910390f35b34801561015157600080fd5b5061015a61038f565b6040516101679190610c52565b60405180910390f35b34801561017c57600080fd5b5061019760048036038101906101929190610868565b6104ae565b6040516101a49190610d02565b60405180910390f35b3480156101b957600080fd5b506101c26104de565b6040516101cf9190610c37565b60405180910390f35b6101f260048036038101906101ed91906108a9565b610502565b005b34801561020057600080fd5b5061021b600480360381019061021691906108fd565b6105ec565b005b34801561022957600080fd5b50610244600480360381019061023f9190610868565b6106c2565b6040516102519190610d02565b60405180910390f35b6002818154811061026757fe5b9060005260206000209060040201600091509050806000018054600181600116156101000203166002900480601f0160208091040260200160405190810160405280929190818152602001828054600181600116156101000203166002900480156103135780601f106102e857610100808354040283529160200191610313565b820191906000526020600020905b8154815290600101906020018083116102f657829003601f168201915b5050505050908060010154908060020154908060030154905084565b6000600261033c836106c2565b8154811061034657fe5b9060005260206000209060040201600301549050919050565b6000600261036c836106c2565b8154811061037657fe5b9060005260206000209060040201600101549050919050565b60606002805480602002602001604051908101604052809291908181526020016000905b828210156104a55783829060005260206000209060040201604051806080016040529081600082018054600181600116156101000203166002900480601f01602080910402602001604051908101604052809291908181526020018280546001816001161561010002031660029004801561046f5780601f106104445761010080835404028352916020019161046f565b820191906000526020600020905b81548152906001019060200180831161045257829003601f168201915b505050505081526020016001820154815260200160028201548152602001600382015481525050815260200190600101906103b3565b50505050905090565b600060026104bb836106c2565b815481106104c557fe5b9060005260206000209060040201600201549050919050565b60008054906101000a900473ffffffffffffffffffffffffffffffffffffffff1681565b600061050d836106c2565b90506001546002828154811061051f57fe5b90600052602060002090600402016001015483020234101561054057600080fd5b816002828154811061054e57fe5b90600052602060002090600402016002015410156105a1576040517f08c379a000000000000000000000000000000000000000000000000000000000815260040161059890610ce2565b60405180910390fd5b5b600082146105e757600281815481106105b757fe5b906000526020600020906004020160020160008154809291906001900391905055508180600190039250506105a2565b505050565b6105f461073a565b60405180608001604052808681526020018581526020018481526020018381525090506002819080600181540180825580915050600190039060005260206000209060040201600090919091909150600082015181600001908051906020019061065f929190610762565b5060208201518160010155604082015181600201556060820151816003015550507f4ff0eee1cd91d404f9bdb343c1bc8c1f0810e580e97e7d74341be7ed28a4b3f281600001516040516106b39190610c74565b60405180910390a15050505050565b600080600090505b60028054905081101561072e578280519060200120600282815481106106ec57fe5b906000526020600020906004020160000160405161070a9190610c20565b604051809103902014156107215780915050610735565b80806001019150506106ca565b506103e890505b919050565b6040518060800160405280606081526020016000815260200160008152602001600081525090565b828054600181600116156101000203166002900490600052602060002090601f016020900481019282601f106107a357805160ff19168380011785556107d1565b828001600101855582156107d1579182015b828111156107d05782518255916020019190600101906107b5565b5b5090506107de91906107e2565b5090565b5b808211156107fb5760008160009055506001016107e3565b5090565b600082601f83011261081057600080fd5b813561082361081e82610d4e565b610d1d565b9150808252602083016020830185838301111561083f57600080fd5b61084a838284610e40565b50505092915050565b60008135905061086281610e95565b92915050565b60006020828403121561087a57600080fd5b600082013567ffffffffffffffff81111561089457600080fd5b6108a0848285016107ff565b91505092915050565b600080604083850312156108bc57600080fd5b600083013567ffffffffffffffff8111156108d657600080fd5b6108e2858286016107ff565b92505060206108f385828601610853565b9150509250929050565b6000806000806080858703121561091357600080fd5b600085013567ffffffffffffffff81111561092d57600080fd5b610939878288016107ff565b945050602061094a87828801610853565b935050604061095b87828801610853565b925050606061096c87828801610853565b91505092959194509250565b60006020828403121561098a57600080fd5b600061099884828501610853565b91505092915050565b60006109ad8383610b9f565b905092915050565b6109be81610e04565b82525050565b60006109cf82610da3565b6109d98185610dc6565b9350836020820285016109eb85610d7e565b8060005b85811015610a275784840389528151610a0885826109a1565b9450610a1383610db9565b925060208a019950506001810190506109ef565b50829750879550505050505092915050565b600081546001811660008114610a565760018114610a7b57610abf565b607f6002830416610a678187610dd7565b955060ff1983168652808601935050610abf565b60028204610a898187610dd7565b9550610a9485610d8e565b60005b82811015610ab657815481890152600182019150602081019050610a97565b82880195505050505b505092915050565b6000610ad282610dae565b610adc8185610de2565b9350610aec818560208601610e4f565b610af581610e84565b840191505092915050565b6000610b0b82610dae565b610b158185610df3565b9350610b25818560208601610e4f565b610b2e81610e84565b840191505092915050565b6000610b46602d83610df3565b91507f4e6f7420656e6f756768207469636b65747320746f20636f6d706c657465207460008301527f6869732070757263686173652e000000000000000000000000000000000000006020830152604082019050919050565b60006080830160008301518482036000860152610bbc8282610ac7565b9150506020830151610bd16020860182610c02565b506040830151610be46040860182610c02565b506060830151610bf76060860182610c02565b508091505092915050565b610c0b81610e36565b82525050565b610c1a81610e36565b82525050565b6000610c2c8284610a39565b915081905092915050565b6000602082019050610c4c60008301846109b5565b92915050565b60006020820190508181036000830152610c6c81846109c4565b905092915050565b60006020820190508181036000830152610c8e8184610b00565b905092915050565b60006080820190508181036000830152610cb08187610b00565b9050610cbf6020830186610c11565b610ccc6040830185610c11565b610cd96060830184610c11565b95945050505050565b60006020820190508181036000830152610cfb81610b39565b9050919050565b6000602082019050610d176000830184610c11565b92915050565b6000604051905081810181811067ffffffffffffffff82111715610d4457610d43610e82565b5b8060405250919050565b600067ffffffffffffffff821115610d6957610d68610e82565b5b601f19601f8301169050602081019050919050565b6000819050602082019050919050565b60008190508160005260206000209050919050565b600081519050919050565b600081519050919050565b6000602082019050919050565b600082825260208201905092915050565b600081905092915050565b600082825260208201905092915050565b600082825260208201905092915050565b6000610e0f82610e16565b9050919050565b600073ffffffffffffffffffffffffffffffffffffffff82169050919050565b6000819050919050565b82818337600083830152505050565b60005b83811015610e6d578082015181840152602081019050610e52565b83811115610e7c576000848401525b50505050565bfe5b6000601f19601f8301169050919050565b610e9e81610e36565b8114610ea957600080fd5b5056fea2646970667358221220fa4146062630d47e9abff18ac904133fc5d1292fc713c843f09d31f8a5f312a764736f6c63430007030033",
  "linkReferences": {},
  "deployedLinkReferences": {}
}